{
  "_format": "hh-sol-artifact-1",
  "contractName": "Vault",
  "sourceName": "contracts/Vault.sol",
  "abi": [
    {
      "inputs": [
        {
          "internalType": "address",
          "name": "_collateralToken",
          "type": "address"
        }
      ],
      "stateMutability": "nonpayable",
      "type": "constructor"
    },
    {
      "anonymous": false,
      "inputs": [
        {
          "indexed": true,
          "internalType": "uint256",
          "name": "vaultId",
          "type": "uint256"
        },
        {
          "indexed": false,
          "internalType": "uint256",
          "name": "amount",
          "type": "uint256"
        }
      ],
      "name": "CollateralDeposited",
      "type": "event"
    },
    {
      "anonymous": false,
      "inputs": [
        {
          "indexed": true,
          "internalType": "uint256",
          "name": "vaultId",
          "type": "uint256"
        },
        {
          "indexed": true,
          "internalType": "address",
          "name": "owner",
          "type": "address"
        }
      ],
      "name": "VaultCreated",
      "type": "event"
    },
    {
      "inputs": [],
      "name": "collateralToken",
      "outputs": [
        {
          "internalType": "contract IERC20",
          "name": "",
          "type": "address"
        }
      ],
      "stateMutability": "view",
      "type": "function"
    },
    {
      "inputs": [],
      "name": "createVault",
      "outputs": [
        {
          "internalType": "uint256",
          "name": "vaultId",
          "type": "uint256"
        }
      ],
      "stateMutability": "nonpayable",
      "type": "function"
    },
    {
      "inputs": [
        {
          "internalType": "uint256",
          "name": "vaultId",
          "type": "uint256"
        },
        {
          "internalType": "uint256",
          "name": "amount",
          "type": "uint256"
        }
      ],
      "name": "depositCollateral",
      "outputs": [],
      "stateMutability": "nonpayable",
      "type": "function"
    },
    {
      "inputs": [
        {
          "internalType": "uint256",
          "name": "vaultId",
          "type": "uint256"
        }
      ],
      "name": "getVault",
      "outputs": [
        {
          "internalType": "uint256",
          "name": "collateral",
          "type": "uint256"
        },
        {
          "internalType": "uint256",
          "name": "debt",
          "type": "uint256"
        }
      ],
      "stateMutability": "view",
      "type": "function"
    },
    {
      "inputs": [
        {
          "internalType": "uint256",
          "name": "",
          "type": "uint256"
        }
      ],
      "name": "vaults",
      "outputs": [
        {
          "internalType": "address",
          "name": "owner",
          "type": "address"
        },
        {
          "internalType": "uint256",
          "name": "collateral",
          "type": "uint256"
        },
        {
          "internalType": "uint256",
          "name": "debt",
          "type": "uint256"
        }
      ],
      "stateMutability": "view",
      "type": "function"
    }
  ],
  "bytecode": "0x60a060405234801561001057600080fd5b50604051610981380380610981833981810160405281019061003291906100cf565b8073ffffffffffffffffffffffffffffffffffffffff1660808173ffffffffffffffffffffffffffffffffffffffff1681525050506100fc565b600080fd5b600073ffffffffffffffffffffffffffffffffffffffff82169050919050565b600061009c82610071565b9050919050565b6100ac81610091565b81146100b757600080fd5b50565b6000815190506100c9816100a3565b92915050565b6000602082840312156100e5576100e461006c565b5b60006100f3848285016100ba565b91505092915050565b60805161086361011e60003960008181610296015261036301526108636000f3fe608060405234801561001057600080fd5b50600436106100575760003560e01c80635d12928b1461005c5780638c64ea4a1461007a5780639403b634146100ac578063b2016bd4146100dd578063ece13732146100fb575b600080fd5b610064610117565b6040516100719190610473565b60405180910390f35b610094600480360381019061008f91906104bf565b61021c565b6040516100a39392919061052d565b60405180910390f35b6100c660048036038101906100c191906104bf565b610266565b6040516100d4929190610564565b60405180910390f35b6100e5610294565b6040516100f291906105ec565b60405180910390f35b61011560048036038101906101109190610607565b6102b8565b005b600080600081548092919061012b90610676565b91905055905060405180606001604052803373ffffffffffffffffffffffffffffffffffffffff1681526020016000815260200160008152506001600083815260200190815260200160002060008201518160000160006101000a81548173ffffffffffffffffffffffffffffffffffffffff021916908373ffffffffffffffffffffffffffffffffffffffff16021790555060208201518160010155604082015181600201559050503373ffffffffffffffffffffffffffffffffffffffff16817fbf3e9c93de94306b70ac5b9411edf475545815333bf651b894b9eada6482c59460405160405180910390a390565b60016020528060005260406000206000915090508060000160009054906101000a900473ffffffffffffffffffffffffffffffffffffffff16908060010154908060020154905083565b6000806000600160008581526020019081526020016000209050806001015481600201549250925050915091565b7f000000000000000000000000000000000000000000000000000000000000000081565b60006001600084815260200190815260200160002090503373ffffffffffffffffffffffffffffffffffffffff168160000160009054906101000a900473ffffffffffffffffffffffffffffffffffffffff1673ffffffffffffffffffffffffffffffffffffffff1614610361576040517f08c379a00000000000000000000000000000000000000000000000000000000081526004016103589061071b565b60405180910390fd5b7f000000000000000000000000000000000000000000000000000000000000000073ffffffffffffffffffffffffffffffffffffffff166323b872dd3330856040518463ffffffff1660e01b81526004016103be9392919061073b565b6020604051808303816000875af11580156103dd573d6000803e3d6000fd5b505050506040513d601f19601f8201168201806040525081019061040191906107aa565b508181600101600082825461041691906107d7565b92505081905550827f1d6754727766d56b1fac49ac85a13585c6caab122a19c994e569d16077d462f28360405161044d9190610473565b60405180910390a2505050565b6000819050919050565b61046d8161045a565b82525050565b60006020820190506104886000830184610464565b92915050565b600080fd5b61049c8161045a565b81146104a757600080fd5b50565b6000813590506104b981610493565b92915050565b6000602082840312156104d5576104d461048e565b5b60006104e3848285016104aa565b91505092915050565b600073ffffffffffffffffffffffffffffffffffffffff82169050919050565b6000610517826104ec565b9050919050565b6105278161050c565b82525050565b6000606082019050610542600083018661051e565b61054f6020830185610464565b61055c6040830184610464565b949350505050565b60006040820190506105796000830185610464565b6105866020830184610464565b9392505050565b6000819050919050565b60006105b26105ad6105a8846104ec565b61058d565b6104ec565b9050919050565b60006105c482610597565b9050919050565b60006105d6826105b9565b9050919050565b6105e6816105cb565b82525050565b600060208201905061060160008301846105dd565b92915050565b6000806040838503121561061e5761061d61048e565b5b600061062c858286016104aa565b925050602061063d858286016104aa565b9150509250929050565b7f4e487b7100000000000000000000000000000000000000000000000000000000600052601160045260246000fd5b60006106818261045a565b91507fffffffffffffffffffffffffffffffffffffffffffffffffffffffffffffffff82036106b3576106b2610647565b5b600182019050919050565b600082825260208201905092915050565b7f5661756c743a206e6f74206f776e657200000000000000000000000000000000600082015250565b60006107056010836106be565b9150610710826106cf565b602082019050919050565b60006020820190508181036000830152610734816106f8565b9050919050565b6000606082019050610750600083018661051e565b61075d602083018561051e565b61076a6040830184610464565b949350505050565b60008115159050919050565b61078781610772565b811461079257600080fd5b50565b6000815190506107a48161077e565b92915050565b6000602082840312156107c0576107bf61048e565b5b60006107ce84828501610795565b91505092915050565b60006107e28261045a565b91506107ed8361045a565b9250827fffffffffffffffffffffffffffffffffffffffffffffffffffffffffffffffff0382111561082257610821610647565b5b82820190509291505056fea2646970667358221220132608781c074ecfcafb4167a28b8cbb1cc77921e96786f1cc377c82e37c6b2064736f6c634300080f0033",
  "linkReferences": {},
  "deployedLinkReferences": {}
}